:100000000C942A000C9447000C9447000C94470071
:100010000C9447000C9447000C9447000C94470044
:100020000C9447000C9447000C9447000C94470034
:100030000C9447000C9447000C9447000C94470024
:100040000C94A2000C9447000C9447000C944700B9
:100050000C94470011241FBECFE5D8E0DEBFCDBF12
:1000600010E0A0E6B0E0E6E5F3E002C005900D92F6
:10007000AA39B107D9F710E0AAE9B0E001C01D9292
:10008000AF39B107E1F70E94CF000C94A9010C949D
:10009000000030919A00982F92959F70932B292FF2
:1000A000206228BB98BB8F70932F9062982B98BBCF
:1000B000832B88BB80E991E00197F1F70895CF93F6
:1000C000DF9320E120939A00EC0102C00E944900D6
:1000D00089918823D9F710929A00DF91CF910895E2
:1000E0008FEF87BB88BB80E49CE90197F1F793E22F
:1000F00098BB83E088BBE0E2FEE43197F1F798BB60
:1001000088BB20ED37E0F9013197F1F798BB88BB48
:10011000C9010197F1F782E288BB82E088BBC9017F
:100120000197F1F788E20E9449008CE00E944900A3
:1001300086E00E94490081E00E94490080E80E9418
:10014000490008951F920F920FB60F9211242F931A
:100150003F934F935F936F937F938F939F93AF934F
:10016000BF93EF93FF9385B190E06BE970E04AE0B5
:1001700050E00E94780185B183BD369AFF91EF91DE
:10018000BF91AF919F918F917F916F915F914F91AF
:100190003F912F910F900FBE0F901F901895BF9217
:1001A000CF92DF92EF92FF920F931F93DF93CF9343
:1001B00000D000D0CDB7DEB70E947000789481E601
:1001C00087B98CEC86B99FEF91BB89E685BD94BD5C
:1001D00080E690E00E945F0086EC0E94490081E783
:1001E00090E00E945F0080E49CE90197F1F781E0D4
:1001F0000E94490000E010E094E6B92E6E010894D8
:10020000C11CD11C83E0E82EF12CEC0EFD1E80E811
:100210000E9449008AE790E00E945F0084E80E9403
:1002200049008BE990E00E945F0088E80E94490045
:1002300083E890E00E945F008DE80E94490085B14C
:100240008B9DC00111246FEF70E00E945101CB0122
:10025000B6014AE050E00E947801C6010E945F00AA
:1002600085B190E0801B910B25B1022F10E0B70102
:100270004AE050E00E94780180EC0E9449008CE83E
:1002800090E00E945F0084EC0E944900C7010E9438
:100290005F0088EC0E94490085E990E00E945F00C1
:1002A000B6CF97FB092E07260AD077FD04D00CD0D5
:1002B00006D000201AF4709561957F4F0895F6F7E7
:1002C000909581959F4F0895AA1BBB1B51E107C0D4
:1002D000AA1FBB1FA617B70710F0A61BB70B881FD6
:1002E000991F5A95A9F780959095BC01CD01089565
:1002F000FB019F01E8944230C4F04532B4F44A3027
:1003000029F497FB1EF4909581959F4F642F7727D2
:100310000E946401805D8A330CF0895D8193CB017A
:100320000097A1F716F45DE251931082C9010C9475
:100330009901DC01FC01672F71917723E1F7329776
:1003400004C07C916D9370836291AE17BF07C8F3B0
:060350000895F894FFCFB0
:10035600477265656E20546563686E6F6C6F67796A
:1003660000537075746E69747A004144433D2020D1
:1003760020200050574D253D20202000642F647416
:0A0386003D202020005250533D009E
:00000001FF
